{
  "_format": "hh-sol-artifact-1",
  "contractName": "Decentratwitter",
  "sourceName": "contracts/Decentratwitter.sol",
  "abi": [
    {
      "inputs": [],
      "stateMutability": "nonpayable",
      "type": "constructor"
    },
    {
      "anonymous": false,
      "inputs": [
        {
          "indexed": true,
          "internalType": "address",
          "name": "owner",
          "type": "address"
        },
        {
          "indexed": true,
          "internalType": "address",
          "name": "approved",
          "type": "address"
        },
        {
          "indexed": true,
          "internalType": "uint256",
          "name": "tokenId",
          "type": "uint256"
        }
      ],
      "name": "Approval",
      "type": "event"
    },
    {
      "anonymous": false,
      "inputs": [
        {
          "indexed": true,
          "internalType": "address",
          "name": "owner",
          "type": "address"
        },
        {
          "indexed": true,
          "internalType": "address",
          "name": "operator",
          "type": "address"
        },
        {
          "indexed": false,
          "internalType": "bool",
          "name": "approved",
          "type": "bool"
        }
      ],
      "name": "ApprovalForAll",
      "type": "event"
    },
    {
      "anonymous": false,
      "inputs": [
        {
          "indexed": false,
          "internalType": "uint256",
          "name": "id",
          "type": "uint256"
        },
        {
          "indexed": false,
          "internalType": "string",
          "name": "hash",
          "type": "string"
        },
        {
          "indexed": false,
          "internalType": "uint256",
          "name": "tipAmount",
          "type": "uint256"
        },
        {
          "indexed": false,
          "internalType": "address payable",
          "name": "author",
          "type": "address"
        }
      ],
      "name": "PostCreated",
      "type": "event"
    },
    {
      "anonymous": false,
      "inputs": [
        {
          "indexed": false,
          "internalType": "uint256",
          "name": "id",
          "type": "uint256"
        },
        {
          "indexed": false,
          "internalType": "string",
          "name": "hash",
          "type": "string"
        },
        {
          "indexed": false,
          "internalType": "uint256",
          "name": "tipAmount",
          "type": "uint256"
        },
        {
          "indexed": false,
          "internalType": "address payable",
          "name": "author",
          "type": "address"
        }
      ],
      "name": "PostTipped",
      "type": "event"
    },
    {
      "anonymous": false,
      "inputs": [
        {
          "indexed": true,
          "internalType": "address",
          "name": "from",
          "type": "address"
        },
        {
          "indexed": true,
          "internalType": "address",
          "name": "to",
          "type": "address"
        },
        {
          "indexed": true,
          "internalType": "uint256",
          "name": "tokenId",
          "type": "uint256"
        }
      ],
      "name": "Transfer",
      "type": "event"
    },
    {
      "inputs": [
        {
          "internalType": "address",
          "name": "to",
          "type": "address"
        },
        {
          "internalType": "uint256",
          "name": "tokenId",
          "type": "uint256"
        }
      ],
      "name": "approve",
      "outputs": [],
      "stateMutability": "nonpayable",
      "type": "function"
    },
    {
      "inputs": [
        {
          "internalType": "address",
          "name": "owner",
          "type": "address"
        }
      ],
      "name": "balanceOf",
      "outputs": [
        {
          "internalType": "uint256",
          "name": "",
          "type": "uint256"
        }
      ],
      "stateMutability": "view",
      "type": "function"
    },
    {
      "inputs": [],
      "name": "getAllPosts",
      "outputs": [
        {
          "components": [
            {
              "internalType": "uint256",
              "name": "id",
              "type": "uint256"
            },
            {
              "internalType": "string",
              "name": "hash",
              "type": "string"
            },
            {
              "internalType": "uint256",
              "name": "tipAmount",
              "type": "uint256"
            },
            {
              "internalType": "address payable",
              "name": "author",
              "type": "address"
            }
          ],
          "internalType": "struct Decentratwitter.Post[]",
          "name": "_posts",
          "type": "tuple[]"
        }
      ],
      "stateMutability": "view",
      "type": "function"
    },
    {
      "inputs": [
        {
          "internalType": "uint256",
          "name": "tokenId",
          "type": "uint256"
        }
      ],
      "name": "getApproved",
      "outputs": [
        {
          "internalType": "address",
          "name": "",
          "type": "address"
        }
      ],
      "stateMutability": "view",
      "type": "function"
    },
    {
      "inputs": [],
      "name": "getMyNfts",
      "outputs": [
        {
          "internalType": "uint256[]",
          "name": "_ids",
          "type": "uint256[]"
        }
      ],
      "stateMutability": "view",
      "type": "function"
    },
    {
      "inputs": [
        {
          "internalType": "address",
          "name": "owner",
          "type": "address"
        },
        {
          "internalType": "address",
          "name": "operator",
          "type": "address"
        }
      ],
      "name": "isApprovedForAll",
      "outputs": [
        {
          "internalType": "bool",
          "name": "",
          "type": "bool"
        }
      ],
      "stateMutability": "view",
      "type": "function"
    },
    {
      "inputs": [
        {
          "internalType": "string",
          "name": "_tokenURI",
          "type": "string"
        }
      ],
      "name": "mint",
      "outputs": [
        {
          "internalType": "uint256",
          "name": "",
          "type": "uint256"
        }
      ],
      "stateMutability": "nonpayable",
      "type": "function"
    },
    {
      "inputs": [],
      "name": "name",
      "outputs": [
        {
          "internalType": "string",
          "name": "",
          "type": "string"
        }
      ],
      "stateMutability": "view",
      "type": "function"
    },
    {
      "inputs": [
        {
          "internalType": "uint256",
          "name": "tokenId",
          "type": "uint256"
        }
      ],
      "name": "ownerOf",
      "outputs": [
        {
          "internalType": "address",
          "name": "",
          "type": "address"
        }
      ],
      "stateMutability": "view",
      "type": "function"
    },
    {
      "inputs": [],
      "name": "postCount",
      "outputs": [
        {
          "internalType": "uint256",
          "name": "",
          "type": "uint256"
        }
      ],
      "stateMutability": "view",
      "type": "function"
    },
    {
      "inputs": [
        {
          "internalType": "uint256",
          "name": "",
          "type": "uint256"
        }
      ],
      "name": "posts",
      "outputs": [
        {
          "internalType": "uint256",
          "name": "id",
          "type": "uint256"
        },
        {
          "internalType": "string",
          "name": "hash",
          "type": "string"
        },
        {
          "internalType": "uint256",
          "name": "tipAmount",
          "type": "uint256"
        },
        {
          "internalType": "address payable",
          "name": "author",
          "type": "address"
        }
      ],
      "stateMutability": "view",
      "type": "function"
    },
    {
      "inputs": [
        {
          "internalType": "address",
          "name": "",
          "type": "address"
        }
      ],
      "name": "profiles",
      "outputs": [
        {
          "internalType": "uint256",
          "name": "",
          "type": "uint256"
        }
      ],
      "stateMutability": "view",
      "type": "function"
    },
    {
      "inputs": [
        {
          "internalType": "address",
          "name": "from",
          "type": "address"
        },
        {
          "internalType": "address",
          "name": "to",
          "type": "address"
        },
        {
          "internalType": "uint256",
          "name": "tokenId",
          "type": "uint256"
        }
      ],
      "name": "safeTransferFrom",
      "outputs": [],
      "stateMutability": "nonpayable",
      "type": "function"
    },
    {
      "inputs": [
        {
          "internalType": "address",
          "name": "from",
          "type": "address"
        },
        {
          "internalType": "address",
          "name": "to",
          "type": "address"
        },
        {
          "internalType": "uint256",
          "name": "tokenId",
          "type": "uint256"
        },
        {
          "internalType": "bytes",
          "name": "_data",
          "type": "bytes"
        }
      ],
      "name": "safeTransferFrom",
      "outputs": [],
      "stateMutability": "nonpayable",
      "type": "function"
    },
    {
      "inputs": [
        {
          "internalType": "address",
          "name": "operator",
          "type": "address"
        },
        {
          "internalType": "bool",
          "name": "approved",
          "type": "bool"
        }
      ],
      "name": "setApprovalForAll",
      "outputs": [],
      "stateMutability": "nonpayable",
      "type": "function"
    },
    {
      "inputs": [
        {
          "internalType": "uint256",
          "name": "_id",
          "type": "uint256"
        }
      ],
      "name": "setProfile",
      "outputs": [],
      "stateMutability": "nonpayable",
      "type": "function"
    },
    {
      "inputs": [
        {
          "internalType": "bytes4",
          "name": "interfaceId",
          "type": "bytes4"
        }
      ],
      "name": "supportsInterface",
      "outputs": [
        {
          "internalType": "bool",
          "name": "",
          "type": "bool"
        }
      ],
      "stateMutability": "view",
      "type": "function"
    },
    {
      "inputs": [],
      "name": "symbol",
      "outputs": [
        {
          "internalType": "string",
          "name": "",
          "type": "string"
        }
      ],
      "stateMutability": "view",
      "type": "function"
    },
    {
      "inputs": [
        {
          "internalType": "uint256",
          "name": "_id",
          "type": "uint256"
        }
      ],
      "name": "tipPostOwner",
      "outputs": [],
      "stateMutability": "payable",
      "type": "function"
    },
    {
      "inputs": [],
      "name": "tokenCount",
      "outputs": [
        {
          "internalType": "uint256",
          "name": "",
          "type": "uint256"
        }
      ],
      "stateMutability": "view",
      "type": "function"
    },
    {
      "inputs": [
        {
          "internalType": "uint256",
          "name": "tokenId",
          "type": "uint256"
        }
      ],
      "name": "tokenURI",
      "outputs": [
        {
          "internalType": "string",
          "name": "",
          "type": "string"
        }
      ],
      "stateMutability": "view",
      "type": "function"
    },
    {
      "inputs": [
        {
          "internalType": "address",
          "name": "from",
          "type": "address"
        },
        {
          "internalType": "address",
          "name": "to",
          "type": "address"
        },
        {
          "internalType": "uint256",
          "name": "tokenId",
          "type": "uint256"
        }
      ],
      "name": "transferFrom",
      "outputs": [],
      "stateMutability": "nonpayable",
      "type": "function"
    },
    {
      "inputs": [
        {
          "internalType": "string",
          "name": "_postHash",
          "type": "string"
        }
      ],
      "name": "uploadPost",
      "outputs": [],
      "stateMutability": "nonpayable",
      "type": "function"
    }
  ],
  "bytecode": "0x60806040523480156200001157600080fd5b506040518060400160405280600f81526020017f446563656e7472617477697474657200000000000000000000000000000000008152506040518060400160405280600481526020017f4441505000000000000000000000000000000000000000000000000000000000815250816000908051906020019062000096929190620000b8565b508060019080519060200190620000af929190620000b8565b505050620001cd565b828054620000c69062000168565b90600052602060002090601f016020900481019282620000ea576000855562000136565b82601f106200010557805160ff191683800117855562000136565b8280016001018555821562000136579182015b828111156200013557825182559160200191906001019062000118565b5b50905062000145919062000149565b5090565b5b80821115620001645760008160009055506001016200014a565b5090565b600060028204905060018216806200018157607f821691505b602082108114156200019857620001976200019e565b5b50919050565b7f4e487b7100000000000000000000000000000000000000000000000000000000600052602260045260246000fd5b613e7a80620001dd6000396000f3fe6080604052600436106101405760003560e01c806370a08231116100b6578063bbe156271161006f578063bbe1562714610471578063bdd05adb146104ae578063c87b56dd146104d7578063d6313c0614610514578063d85d3d2714610530578063e985e9c51461056d57610140565b806370a082311461036357806385d3cb37146103a057806395d89b41146103c95780639f181b5e146103f4578063a22cb4651461041f578063b88d4fde1461044857610140565b80630b1e7f83116101085780630b1e7f831461023e57806317906c2e1461027e57806323b872dd146102a957806330561100146102d257806342842e0e146102fd5780636352211e1461032657610140565b806301ffc9a714610145578063047b07bf1461018257806306fdde03146101ad578063081812fc146101d8578063095ea7b314610215575b600080fd5b34801561015157600080fd5b5061016c60048036038101906101679190612924565b6105aa565b6040516101799190613035565b60405180910390f35b34801561018e57600080fd5b5061019761068c565b6040516101a49190613013565b60405180910390f35b3480156101b957600080fd5b506101c26107dc565b6040516101cf9190613050565b60405180910390f35b3480156101e457600080fd5b506101ff60048036038101906101fa91906129b7565b61086e565b60405161020c9190612f8a565b60405180910390f35b34801561022157600080fd5b5061023c600480360381019061023791906128e8565b6108f3565b005b34801561024a57600080fd5b50610265600480360381019061026091906129b7565b610a0b565b6040516102759493929190613379565b60405180910390f35b34801561028a57600080fd5b50610293610ae3565b6040516102a09190613312565b60405180910390f35b3480156102b557600080fd5b506102d060048036038101906102cb91906127e2565b610ae9565b005b3480156102de57600080fd5b506102e7610b49565b6040516102f49190612ff1565b60405180910390f35b34801561030957600080fd5b50610324600480360381019061031f91906127e2565b610d56565b005b34801561033257600080fd5b5061034d600480360381019061034891906129b7565b610d76565b60405161035a9190612f8a565b60405180910390f35b34801561036f57600080fd5b5061038a6004803603810190610385919061277d565b610e28565b6040516103979190613312565b60405180910390f35b3480156103ac57600080fd5b506103c760048036038101906103c291906129b7565b610ee0565b005b3480156103d557600080fd5b506103de610f9d565b6040516103eb9190613050565b60405180910390f35b34801561040057600080fd5b5061040961102f565b6040516104169190613312565b60405180910390f35b34801561042b57600080fd5b50610446600480360381019061044191906128ac565b611035565b005b34801561045457600080fd5b5061046f600480360381019061046a9190612831565b61104b565b005b34801561047d57600080fd5b506104986004803603810190610493919061277d565b6110ad565b6040516104a59190613312565b60405180910390f35b3480156104ba57600080fd5b506104d560048036038101906104d09190612976565b6110c5565b005b3480156104e357600080fd5b506104fe60048036038101906104f991906129b7565b611279565b60405161050b9190613050565b60405180910390f35b61052e600480360381019061052991906129b7565b6113cb565b005b34801561053c57600080fd5b5061055760048036038101906105529190612976565b6116ed565b6040516105649190613312565b60405180910390f35b34801561057957600080fd5b50610594600480360381019061058f91906127a6565b611734565b6040516105a19190613035565b60405180910390f35b60007f80ac58cd000000000000000000000000000000000000000000000000000000007bffffffffffffffffffffffffffffffffffffffffffffffffffffffff1916827bffffffffffffffffffffffffffffffffffffffffffffffffffffffff1916148061067557507f5b5e139f000000000000000000000000000000000000000000000000000000007bffffffffffffffffffffffffffffffffffffffffffffffffffffffff1916827bffffffffffffffffffffffffffffffffffffffffffffffffffffffff1916145b806106855750610684826117c8565b5b9050919050565b606061069733610e28565b67ffffffffffffffff8111156106d6577f4e487b7100000000000000000000000000000000000000000000000000000000600052604160045260246000fd5b6040519080825280602002602001820160405280156107045781602001602082028036833780820191505090505b509050600080600754905060005b818110156107d6573373ffffffffffffffffffffffffffffffffffffffff166107466001836107419190613512565b610d76565b73ffffffffffffffffffffffffffffffffffffffff1614156107c35760018161076f9190613512565b8484815181106107a8577f4e487b7100000000000000000000000000000000000000000000000000000000600052603260045260246000fd5b60200260200101818152505082806107bf9061370a565b9350505b80806107ce9061370a565b915050610712565b50505090565b6060600080546107eb906136a7565b80601f0160208091040260200160405190810160405280929190818152602001828054610817906136a7565b80156108645780601f1061083957610100808354040283529160200191610864565b820191906000526020600020905b81548152906001019060200180831161084757829003601f168201915b5050505050905090565b600061087982611832565b6108b8576040517f08c379a00000000000000000000000000000000000000000000000000000000081526004016108af90613212565b60405180910390fd5b6004600083815260200190815260200160002060009054906101000a900473ffffffffffffffffffffffffffffffffffffffff169050919050565b60006108fe82610d76565b90508073ffffffffffffffffffffffffffffffffffffffff168373ffffffffffffffffffffffffffffffffffffffff16141561096f576040517f08c379a000000000000000000000000000000000000000000000000000000000815260040161096690613272565b60405180910390fd5b8073ffffffffffffffffffffffffffffffffffffffff1661098e61189e565b73ffffffffffffffffffffffffffffffffffffffff1614806109bd57506109bc816109b761189e565b611734565b5b6109fc576040517f08c379a00000000000000000000000000000000000000000000000000000000081526004016109f390613132565b60405180910390fd5b610a0683836118a6565b505050565b6009602052806000526040600020600091509050806000015490806001018054610a34906136a7565b80601f0160208091040260200160405190810160405280929190818152602001828054610a60906136a7565b8015610aad5780601f10610a8257610100808354040283529160200191610aad565b820191906000526020600020905b815481529060010190602001808311610a9057829003601f168201915b5050505050908060020154908060030160009054906101000a900473ffffffffffffffffffffffffffffffffffffffff16905084565b60085481565b610afa610af461189e565b8261195f565b610b39576040517f08c379a0000000000000000000000000000000000000000000000000000000008152600401610b30906132f2565b60405180910390fd5b610b44838383611a3d565b505050565b606060085467ffffffffffffffff811115610b8d577f4e487b7100000000000000000000000000000000000000000000000000000000600052604160045260246000fd5b604051908082528060200260200182016040528015610bc657816020015b610bb3612563565b815260200190600190039081610bab5790505b50905060005b8151811015610d525760096000600183610be69190613512565b815260200190815260200160002060405180608001604052908160008201548152602001600182018054610c19906136a7565b80601f0160208091040260200160405190810160405280929190818152602001828054610c45906136a7565b8015610c925780601f10610c6757610100808354040283529160200191610c92565b820191906000526020600020905b815481529060010190602001808311610c7557829003601f168201915b50505050508152602001600282015481526020016003820160009054906101000a900473ffffffffffffffffffffffffffffffffffffffff1673ffffffffffffffffffffffffffffffffffffffff1673ffffffffffffffffffffffffffffffffffffffff1681525050828281518110610d34577f4e487b7100000000000000000000000000000000000000000000000000000000600052603260045260246000fd5b60200260200101819052508080610d4a9061370a565b915050610bcc565b5090565b610d718383836040518060200160405280600081525061104b565b505050565b6000806002600084815260200190815260200160002060009054906101000a900473ffffffffffffffffffffffffffffffffffffffff169050600073ffffffffffffffffffffffffffffffffffffffff168173ffffffffffffffffffffffffffffffffffffffff161415610e1f576040517f08c379a0000000000000000000000000000000000000000000000000000000008152600401610e1690613172565b60405180910390fd5b80915050919050565b60008073ffffffffffffffffffffffffffffffffffffffff168273ffffffffffffffffffffffffffffffffffffffff161415610e99576040517f08c379a0000000000000000000000000000000000000000000000000000000008152600401610e9090613152565b60405180910390fd5b600360008373ffffffffffffffffffffffffffffffffffffffff1673ffffffffffffffffffffffffffffffffffffffff168152602001908152602001600020549050919050565b3373ffffffffffffffffffffffffffffffffffffffff16610f0082610d76565b73ffffffffffffffffffffffffffffffffffffffff1614610f56576040517f08c379a0000000000000000000000000000000000000000000000000000000008152600401610f4d90613292565b60405180910390fd5b80600a60003373ffffffffffffffffffffffffffffffffffffffff1673ffffffffffffffffffffffffffffffffffffffff1681526020019081526020016000208190555050565b606060018054610fac906136a7565b80601f0160208091040260200160405190810160405280929190818152602001828054610fd8906136a7565b80156110255780601f10610ffa57610100808354040283529160200191611025565b820191906000526020600020905b81548152906001019060200180831161100857829003601f168201915b5050505050905090565b60075481565b61104761104061189e565b8383611ca4565b5050565b61105c61105661189e565b8361195f565b61109b576040517f08c379a0000000000000000000000000000000000000000000000000000000008152600401611092906132f2565b60405180910390fd5b6110a784848484611e11565b50505050565b600a6020528060005260406000206000915090505481565b60006110d033610e28565b11611110576040517f08c379a0000000000000000000000000000000000000000000000000000000008152600401611107906132d2565b60405180910390fd5b6000815111611154576040517f08c379a000000000000000000000000000000000000000000000000000000000815260040161114b90613232565b60405180910390fd5b600860008154809291906111679061370a565b919050555060405180608001604052806008548152602001828152602001600081526020013373ffffffffffffffffffffffffffffffffffffffff168152506009600060085481526020019081526020016000206000820151816000015560208201518160010190805190602001906111e19291906125a1565b506040820151816002015560608201518160030160006101000a81548173ffffffffffffffffffffffffffffffffffffffff021916908373ffffffffffffffffffffffffffffffffffffffff1602179055509050507fc66336337a24e513f909b3b25119854dba8385d51307dbc7d31d1b2805e19c7e6008548260003360405161126e949392919061332d565b60405180910390a150565b606061128482611832565b6112c3576040517f08c379a00000000000000000000000000000000000000000000000000000000081526004016112ba906131f2565b60405180910390fd5b60006006600084815260200190815260200160002080546112e3906136a7565b80601f016020809104026020016040519081016040528092919081815260200182805461130f906136a7565b801561135c5780601f106113315761010080835404028352916020019161135c565b820191906000526020600020905b81548152906001019060200180831161133f57829003601f168201915b50505050509050600061136d611e6d565b90506000815114156113835781925050506113c6565b6000825111156113b85780826040516020016113a0929190612f66565b604051602081830303815290604052925050506113c6565b6113c184611e84565b925050505b919050565b6000811180156113dd57506008548111155b61141c576040517f08c379a0000000000000000000000000000000000000000000000000000000008152600401611413906131b2565b60405180910390fd5b60006009600083815260200190815260200160002060405180608001604052908160008201548152602001600182018054611456906136a7565b80601f0160208091040260200160405190810160405280929190818152602001828054611482906136a7565b80156114cf5780601f106114a4576101008083540402835291602001916114cf565b820191906000526020600020905b8154815290600101906020018083116114b257829003601f168201915b50505050508152602001600282015481526020016003820160009054906101000a900473ffffffffffffffffffffffffffffffffffffffff1673ffffffffffffffffffffffffffffffffffffffff1673ffffffffffffffffffffffffffffffffffffffff168152505090503373ffffffffffffffffffffffffffffffffffffffff16816060015173ffffffffffffffffffffffffffffffffffffffff1614156115ad576040517f08c379a00000000000000000000000000000000000000000000000000000000081526004016115a4906132b2565b60405180910390fd5b806060015173ffffffffffffffffffffffffffffffffffffffff166108fc349081150290604051600060405180830381858888f193505050501580156115f7573d6000803e3d6000fd5b50348160400181815161160a9190613512565b91508181525050806009600084815260200190815260200160002060008201518160000155602082015181600101908051906020019061164b9291906125a1565b506040820151816002015560608201518160030160006101000a81548173ffffffffffffffffffffffffffffffffffffffff021916908373ffffffffffffffffffffffffffffffffffffffff1602179055509050507f20988fe475351e75813672abada1dddb7ac67cbbeb81e61e1160b8329d8cdf1c828260200151836040015184606001516040516116e19493929190613379565b60405180910390a15050565b6000600760008154809291906117029061370a565b919050555061171333600754611f2b565b61171f60075483611f49565b61172a600754610ee0565b6007549050919050565b6000600560008473ffffffffffffffffffffffffffffffffffffffff1673ffffffffffffffffffffffffffffffffffffffff16815260200190815260200160002060008373ffffffffffffffffffffffffffffffffffffffff1673ffffffffffffffffffffffffffffffffffffffff16815260200190815260200160002060009054906101000a900460ff16905092915050565b60007f01ffc9a7000000000000000000000000000000000000000000000000000000007bffffffffffffffffffffffffffffffffffffffffffffffffffffffff1916827bffffffffffffffffffffffffffffffffffffffffffffffffffffffff1916149050919050565b60008073ffffffffffffffffffffffffffffffffffffffff166002600084815260200190815260200160002060009054906101000a900473ffffffffffffffffffffffffffffffffffffffff1673ffffffffffffffffffffffffffffffffffffffff1614159050919050565b600033905090565b816004600083815260200190815260200160002060006101000a81548173ffffffffffffffffffffffffffffffffffffffff021916908373ffffffffffffffffffffffffffffffffffffffff160217905550808273ffffffffffffffffffffffffffffffffffffffff1661191983610d76565b73ffffffffffffffffffffffffffffffffffffffff167f8c5be1e5ebec7d5bd14f71427d1e84f3dd0314c0f7b2291e5b200ac8c7c3b92560405160405180910390a45050565b600061196a82611832565b6119a9576040517f08c379a00000000000000000000000000000000000000000000000000000000081526004016119a090613112565b60405180910390fd5b60006119b483610d76565b90508073ffffffffffffffffffffffffffffffffffffffff168473ffffffffffffffffffffffffffffffffffffffff161480611a2357508373ffffffffffffffffffffffffffffffffffffffff16611a0b8461086e565b73ffffffffffffffffffffffffffffffffffffffff16145b80611a345750611a338185611734565b5b91505092915050565b8273ffffffffffffffffffffffffffffffffffffffff16611a5d82610d76565b73ffffffffffffffffffffffffffffffffffffffff1614611ab3576040517f08c379a0000000000000000000000000000000000000000000000000000000008152600401611aaa90613092565b60405180910390fd5b600073ffffffffffffffffffffffffffffffffffffffff168273ffffffffffffffffffffffffffffffffffffffff161415611b23576040517f08c379a0000000000000000000000000000000000000000000000000000000008152600401611b1a906130d2565b60405180910390fd5b611b2e838383611fbd565b611b396000826118a6565b6001600360008573ffffffffffffffffffffffffffffffffffffffff1673ffffffffffffffffffffffffffffffffffffffff1681526020019081526020016000206000828254611b899190613599565b925050819055506001600360008473ffffffffffffffffffffffffffffffffffffffff1673ffffffffffffffffffffffffffffffffffffffff1681526020019081526020016000206000828254611be09190613512565b92505081905550816002600083815260200190815260200160002060006101000a81548173ffffffffffffffffffffffffffffffffffffffff021916908373ffffffffffffffffffffffffffffffffffffffff160217905550808273ffffffffffffffffffffffffffffffffffffffff168473ffffffffffffffffffffffffffffffffffffffff167fddf252ad1be2c89b69c2b068fc378daa952ba7f163c4a11628f55a4df523b3ef60405160405180910390a4611c9f838383611fc2565b505050565b8173ffffffffffffffffffffffffffffffffffffffff168373ffffffffffffffffffffffffffffffffffffffff161415611d13576040517f08c379a0000000000000000000000000000000000000000000000000000000008152600401611d0a906130f2565b60405180910390fd5b80600560008573ffffffffffffffffffffffffffffffffffffffff1673ffffffffffffffffffffffffffffffffffffffff16815260200190815260200160002060008473ffffffffffffffffffffffffffffffffffffffff1673ffffffffffffffffffffffffffffffffffffffff16815260200190815260200160002060006101000a81548160ff0219169083151502179055508173ffffffffffffffffffffffffffffffffffffffff168373ffffffffffffffffffffffffffffffffffffffff167f17307eab39ab6107e8899845ad3d59bd9653f200f220920489ca2b5937696c3183604051611e049190613035565b60405180910390a3505050565b611e1c848484611a3d565b611e2884848484611fc7565b611e67576040517f08c379a0000000000000000000000000000000000000000000000000000000008152600401611e5e90613072565b60405180910390fd5b50505050565b606060405180602001604052806000815250905090565b6060611e8f82611832565b611ece576040517f08c379a0000000000000000000000000000000000000000000000000000000008152600401611ec590613252565b60405180910390fd5b6000611ed8611e6d565b90506000815111611ef85760405180602001604052806000815250611f23565b80611f028461215e565b604051602001611f13929190612f66565b6040516020818303038152906040525b915050919050565b611f4582826040518060200160405280600081525061230b565b5050565b611f5282611832565b611f91576040517f08c379a0000000000000000000000000000000000000000000000000000000008152600401611f8890613192565b60405180910390fd5b80600660008481526020019081526020016000209080519060200190611fb89291906125a1565b505050565b505050565b505050565b6000611fe88473ffffffffffffffffffffffffffffffffffffffff16612366565b15612151578373ffffffffffffffffffffffffffffffffffffffff1663150b7a0261201161189e565b8786866040518563ffffffff1660e01b81526004016120339493929190612fa5565b602060405180830381600087803b15801561204d57600080fd5b505af192505050801561207e57506040513d601f19601f8201168201806040525081019061207b919061294d565b60015b612101573d80600081146120ae576040519150601f19603f3d011682016040523d82523d6000602084013e6120b3565b606091505b506000815114156120f9576040517f08c379a00000000000000000000000000000000000000000000000000000000081526004016120f090613072565b60405180910390fd5b805181602001fd5b63150b7a0260e01b7bffffffffffffffffffffffffffffffffffffffffffffffffffffffff1916817bffffffffffffffffffffffffffffffffffffffffffffffffffffffff191614915050612156565b600190505b949350505050565b606060008214156121a6576040518060400160405280600181526020017f30000000000000000000000000000000000000000000000000000000000000008152509050612306565b600082905060005b600082146121d85780806121c19061370a565b915050600a826121d19190613568565b91506121ae565b60008167ffffffffffffffff81111561221a577f4e487b7100000000000000000000000000000000000000000000000000000000600052604160045260246000fd5b6040519080825280601f01601f19166020018201604052801561224c5781602001600182028036833780820191505090505b5090505b600085146122ff576001826122659190613599565b9150600a856122749190613753565b60306122809190613512565b60f81b8183815181106122bc577f4e487b7100000000000000000000000000000000000000000000000000000000600052603260045260246000fd5b60200101907effffffffffffffffffffffffffffffffffffffffffffffffffffffffffffff1916908160001a905350600a856122f89190613568565b9450612250565b8093505050505b919050565b6123158383612389565b6123226000848484611fc7565b612361576040517f08c379a000000000000000000000000000000000000000000000000000000000815260040161235890613072565b60405180910390fd5b505050565b6000808273ffffffffffffffffffffffffffffffffffffffff163b119050919050565b600073ffffffffffffffffffffffffffffffffffffffff168273ffffffffffffffffffffffffffffffffffffffff1614156123f9576040517f08c379a00000000000000000000000000000000000000000000000000000000081526004016123f0906131d2565b60405180910390fd5b61240281611832565b15612442576040517f08c379a0000000000000000000000000000000000000000000000000000000008152600401612439906130b2565b60405180910390fd5b61244e60008383611fbd565b6001600360008473ffffffffffffffffffffffffffffffffffffffff1673ffffffffffffffffffffffffffffffffffffffff168152602001908152602001600020600082825461249e9190613512565b92505081905550816002600083815260200190815260200160002060006101000a81548173ffffffffffffffffffffffffffffffffffffffff021916908373ffffffffffffffffffffffffffffffffffffffff160217905550808273ffffffffffffffffffffffffffffffffffffffff16600073ffffffffffffffffffffffffffffffffffffffff167fddf252ad1be2c89b69c2b068fc378daa952ba7f163c4a11628f55a4df523b3ef60405160405180910390a461255f60008383611fc2565b5050565b6040518060800160405280600081526020016060815260200160008152602001600073ffffffffffffffffffffffffffffffffffffffff1681525090565b8280546125ad906136a7565b90600052602060002090601f0160209004810192826125cf5760008555612616565b82601f106125e857805160ff1916838001178555612616565b82800160010185558215612616579182015b828111156126155782518255916020019190600101906125fa565b5b5090506126239190612627565b5090565b5b80821115612640576000816000905550600101612628565b5090565b6000612657612652846133ea565b6133c5565b90508281526020810184848401111561266f57600080fd5b61267a848285613665565b509392505050565b60006126956126908461341b565b6133c5565b9050828152602081018484840111156126ad57600080fd5b6126b8848285613665565b509392505050565b6000813590506126cf81613de8565b92915050565b6000813590506126e481613dff565b92915050565b6000813590506126f981613e16565b92915050565b60008151905061270e81613e16565b92915050565b600082601f83011261272557600080fd5b8135612735848260208601612644565b91505092915050565b600082601f83011261274f57600080fd5b813561275f848260208601612682565b91505092915050565b60008135905061277781613e2d565b92915050565b60006020828403121561278f57600080fd5b600061279d848285016126c0565b91505092915050565b600080604083850312156127b957600080fd5b60006127c7858286016126c0565b92505060206127d8858286016126c0565b9150509250929050565b6000806000606084860312156127f757600080fd5b6000612805868287016126c0565b9350506020612816868287016126c0565b925050604061282786828701612768565b9150509250925092565b6000806000806080858703121561284757600080fd5b6000612855878288016126c0565b9450506020612866878288016126c0565b935050604061287787828801612768565b925050606085013567ffffffffffffffff81111561289457600080fd5b6128a087828801612714565b91505092959194509250565b600080604083850312156128bf57600080fd5b60006128cd858286016126c0565b92505060206128de858286016126d5565b9150509250929050565b600080604083850312156128fb57600080fd5b6000612909858286016126c0565b925050602061291a85828601612768565b9150509250929050565b60006020828403121561293657600080fd5b6000612944848285016126ea565b91505092915050565b60006020828403121561295f57600080fd5b600061296d848285016126ff565b91505092915050565b60006020828403121561298857600080fd5b600082013567ffffffffffffffff8111156129a257600080fd5b6129ae8482850161273e565b91505092915050565b6000602082840312156129c957600080fd5b60006129d784828501612768565b91505092915050565b60006129ec8383612ee5565b905092915050565b6000612a008383612f48565b60208301905092915050565b612a15816135df565b82525050565b612a24816135df565b82525050565b612a33816135cd565b82525050565b6000612a448261346c565b612a4e81856134b2565b935083602082028501612a608561344c565b8060005b85811015612a9c5784840389528151612a7d85826129e0565b9450612a8883613498565b925060208a01995050600181019050612a64565b50829750879550505050505092915050565b6000612ab982613477565b612ac381856134c3565b9350612ace8361345c565b8060005b83811015612aff578151612ae688826129f4565b9750612af1836134a5565b925050600181019050612ad2565b5085935050505092915050565b612b15816135f1565b82525050565b6000612b2682613482565b612b3081856134d4565b9350612b40818560208601613674565b612b4981613840565b840191505092915050565b612b5d81613653565b82525050565b6000612b6e8261348d565b612b7881856134e5565b9350612b88818560208601613674565b612b9181613840565b840191505092915050565b6000612ba78261348d565b612bb181856134f6565b9350612bc1818560208601613674565b612bca81613840565b840191505092915050565b6000612be08261348d565b612bea8185613507565b9350612bfa818560208601613674565b80840191505092915050565b6000612c136032836134f6565b9150612c1e82613851565b604082019050919050565b6000612c366025836134f6565b9150612c41826138a0565b604082019050919050565b6000612c59601c836134f6565b9150612c64826138ef565b602082019050919050565b6000612c7c6024836134f6565b9150612c8782613918565b604082019050919050565b6000612c9f6019836134f6565b9150612caa82613967565b602082019050919050565b6000612cc2602c836134f6565b9150612ccd82613990565b604082019050919050565b6000612ce56038836134f6565b9150612cf0826139df565b604082019050919050565b6000612d08602a836134f6565b9150612d1382613a2e565b604082019050919050565b6000612d2b6029836134f6565b9150612d3682613a7d565b604082019050919050565b6000612d4e602e836134f6565b9150612d5982613acc565b604082019050919050565b6000612d71600f836134f6565b9150612d7c82613b1b565b602082019050919050565b6000612d946020836134f6565b9150612d9f82613b44565b602082019050919050565b6000612db76031836134f6565b9150612dc282613b6d565b604082019050919050565b6000612dda602c836134f6565b9150612de582613bbc565b604082019050919050565b6000612dfd6019836134f6565b9150612e0882613c0b565b602082019050919050565b6000612e20602f836134f6565b9150612e2b82613c34565b604082019050919050565b6000612e436021836134f6565b9150612e4e82613c83565b604082019050919050565b6000612e666033836134f6565b9150612e7182613cd2565b604082019050919050565b6000612e896018836134f6565b9150612e9482613d21565b602082019050919050565b6000612eac6026836134f6565b9150612eb782613d4a565b604082019050919050565b6000612ecf6031836134f6565b9150612eda82613d99565b604082019050919050565b6000608083016000830151612efd6000860182612f48565b5060208301518482036020860152612f158282612b63565b9150506040830151612f2a6040860182612f48565b506060830151612f3d6060860182612a0c565b508091505092915050565b612f5181613649565b82525050565b612f6081613649565b82525050565b6000612f728285612bd5565b9150612f7e8284612bd5565b91508190509392505050565b6000602082019050612f9f6000830184612a2a565b92915050565b6000608082019050612fba6000830187612a2a565b612fc76020830186612a2a565b612fd46040830185612f57565b8181036060830152612fe68184612b1b565b905095945050505050565b6000602082019050818103600083015261300b8184612a39565b905092915050565b6000602082019050818103600083015261302d8184612aae565b905092915050565b600060208201905061304a6000830184612b0c565b92915050565b6000602082019050818103600083015261306a8184612b9c565b905092915050565b6000602082019050818103600083015261308b81612c06565b9050919050565b600060208201905081810360008301526130ab81612c29565b9050919050565b600060208201905081810360008301526130cb81612c4c565b9050919050565b600060208201905081810360008301526130eb81612c6f565b9050919050565b6000602082019050818103600083015261310b81612c92565b9050919050565b6000602082019050818103600083015261312b81612cb5565b9050919050565b6000602082019050818103600083015261314b81612cd8565b9050919050565b6000602082019050818103600083015261316b81612cfb565b9050919050565b6000602082019050818103600083015261318b81612d1e565b9050919050565b600060208201905081810360008301526131ab81612d41565b9050919050565b600060208201905081810360008301526131cb81612d64565b9050919050565b600060208201905081810360008301526131eb81612d87565b9050919050565b6000602082019050818103600083015261320b81612daa565b9050919050565b6000602082019050818103600083015261322b81612dcd565b9050919050565b6000602082019050818103600083015261324b81612df0565b9050919050565b6000602082019050818103600083015261326b81612e13565b9050919050565b6000602082019050818103600083015261328b81612e36565b9050919050565b600060208201905081810360008301526132ab81612e59565b9050919050565b600060208201905081810360008301526132cb81612e7c565b9050919050565b600060208201905081810360008301526132eb81612e9f565b9050919050565b6000602082019050818103600083015261330b81612ec2565b9050919050565b60006020820190506133276000830184612f57565b92915050565b60006080820190506133426000830187612f57565b81810360208301526133548186612b9c565b90506133636040830185612b54565b6133706060830184612a1b565b95945050505050565b600060808201905061338e6000830187612f57565b81810360208301526133a08186612b9c565b90506133af6040830185612f57565b6133bc6060830184612a1b565b95945050505050565b60006133cf6133e0565b90506133db82826136d9565b919050565b6000604051905090565b600067ffffffffffffffff82111561340557613404613811565b5b61340e82613840565b9050602081019050919050565b600067ffffffffffffffff82111561343657613435613811565b5b61343f82613840565b9050602081019050919050565b6000819050602082019050919050565b6000819050602082019050919050565b600081519050919050565b600081519050919050565b600081519050919050565b600081519050919050565b6000602082019050919050565b6000602082019050919050565b600082825260208201905092915050565b600082825260208201905092915050565b600082825260208201905092915050565b600082825260208201905092915050565b600082825260208201905092915050565b600081905092915050565b600061351d82613649565b915061352883613649565b9250827fffffffffffffffffffffffffffffffffffffffffffffffffffffffffffffffff0382111561355d5761355c613784565b5b828201905092915050565b600061357382613649565b915061357e83613649565b92508261358e5761358d6137b3565b5b828204905092915050565b60006135a482613649565b91506135af83613649565b9250828210156135c2576135c1613784565b5b828203905092915050565b60006135d882613629565b9050919050565b60006135ea82613629565b9050919050565b60008115159050919050565b60007fffffffff0000000000000000000000000000000000000000000000000000000082169050919050565b600073ffffffffffffffffffffffffffffffffffffffff82169050919050565b6000819050919050565b600061365e82613649565b9050919050565b82818337600083830152505050565b60005b83811015613692578082015181840152602081019050613677565b838111156136a1576000848401525b50505050565b600060028204905060018216806136bf57607f821691505b602082108114156136d3576136d26137e2565b5b50919050565b6136e282613840565b810181811067ffffffffffffffff8211171561370157613700613811565b5b80604052505050565b600061371582613649565b91507fffffffffffffffffffffffffffffffffffffffffffffffffffffffffffffffff82141561374857613747613784565b5b600182019050919050565b600061375e82613649565b915061376983613649565b925082613779576137786137b3565b5b828206905092915050565b7f4e487b7100000000000000000000000000000000000000000000000000000000600052601160045260246000fd5b7f4e487b7100000000000000000000000000000000000000000000000000000000600052601260045260246000fd5b7f4e487b7100000000000000000000000000000000000000000000000000000000600052602260045260246000fd5b7f4e487b7100000000000000000000000000000000000000000000000000000000600052604160045260246000fd5b6000601f19601f8301169050919050565b7f4552433732313a207472616e7366657220746f206e6f6e20455243373231526560008201527f63656976657220696d706c656d656e7465720000000000000000000000000000602082015250565b7f4552433732313a207472616e736665722066726f6d20696e636f72726563742060008201527f6f776e6572000000000000000000000000000000000000000000000000000000602082015250565b7f4552433732313a20746f6b656e20616c7265616479206d696e74656400000000600082015250565b7f4552433732313a207472616e7366657220746f20746865207a65726f2061646460008201527f7265737300000000000000000000000000000000000000000000000000000000602082015250565b7f4552433732313a20617070726f766520746f2063616c6c657200000000000000600082015250565b7f4552433732313a206f70657261746f7220717565727920666f72206e6f6e657860008201527f697374656e7420746f6b656e0000000000000000000000000000000000000000602082015250565b7f4552433732313a20617070726f76652063616c6c6572206973206e6f74206f7760008201527f6e6572206e6f7220617070726f76656420666f7220616c6c0000000000000000602082015250565b7f4552433732313a2062616c616e636520717565727920666f7220746865207a6560008201527f726f206164647265737300000000000000000000000000000000000000000000602082015250565b7f4552433732313a206f776e657220717565727920666f72206e6f6e657869737460008201527f656e7420746f6b656e0000000000000000000000000000000000000000000000602082015250565b7f45524337323155524953746f726167653a2055524920736574206f66206e6f6e60008201527f6578697374656e7420746f6b656e000000000000000000000000000000000000602082015250565b7f496e76616c696420706f73742069640000000000000000000000000000000000600082015250565b7f4552433732313a206d696e7420746f20746865207a65726f2061646472657373600082015250565b7f45524337323155524953746f726167653a2055524920717565727920666f722060008201527f6e6f6e6578697374656e7420746f6b656e000000000000000000000000000000602082015250565b7f4552433732313a20617070726f76656420717565727920666f72206e6f6e657860008201527f697374656e7420746f6b656e0000000000000000000000000000000000000000602082015250565b7f43616e6e6f74207061737320616e20656d707479206861736800000000000000600082015250565b7f4552433732314d657461646174613a2055524920717565727920666f72206e6f60008201527f6e6578697374656e7420746f6b656e0000000000000000000000000000000000602082015250565b7f4552433732313a20617070726f76616c20746f2063757272656e74206f776e6560008201527f7200000000000000000000000000000000000000000000000000000000000000602082015250565b7f4d757374206f776e20746865206e667420796f752077616e7420746f2073656c60008201527f65637420617320796f75722070726f66696c6500000000000000000000000000602082015250565b7f43616e6e6f742074697020796f7572206f776e20706f73740000000000000000600082015250565b7f4d757374206f776e206120646563656e74726174776974746572206e6674207460008201527f6f20706f73740000000000000000000000000000000000000000000000000000602082015250565b7f4552433732313a207472616e736665722063616c6c6572206973206e6f74206f60008201527f776e6572206e6f7220617070726f766564000000000000000000000000000000602082015250565b613df1816135cd565b8114613dfc57600080fd5b50565b613e08816135f1565b8114613e1357600080fd5b50565b613e1f816135fd565b8114613e2a57600080fd5b50565b613e3681613649565b8114613e4157600080fd5b5056fea2646970667358221220005be28f0c5596061a63c368998a337d912ae6e6956a47f1695e6166247ea22164736f6c63430008040033",
  "linkReferences": {},
  "deployedLinkReferences": {}
}